:020000040000FA
:060000000A128A110C280F
:10000800FE00030EF0000A08F1000A128A153229D0
:100018000A128A110F28FB018313583084006E30AE
:100028000A168A1152270A128A11A0308400B830A1
:100038000A168A1152270A128A1183010A128A1192
:100048002528FF30831603138600831203138601C5
:10005800831603138701831203138701831603137F
:1000680088017F3081008B170B170C148312031340
:10007800901010169016DC308E000B308F00101484
:10008800831603131F109F141F159F158312031344
:100098001F139F13831603139F139E0183120313C9
:1000A8009E011F140A128A1178270A128A110A1649
:1000B8008A115A270A128A11F601F60A01300A1221
:1000C8008A15E6200A128A112130F7008030F800DC
:1000D8000A128A155E200A128A11FB118312031371
:1000E800861E7728FB157B1183120313061F7D28B4
:1000F8007B15FB1083120313861F8328FB14FB1840
:10010800862887289F28013083120313DC070318E9
:10011800DD0A0030DD077B14023083120313D6009A
:100128008630D5009830D400D40B9828D50B982861
:10013800D60B98280000831203135C035D04031D8B
:10014800A628A728B8287B1CAA28AB28B8280630D8
:10015800DE000030DF003B30E0000030E1003730E7
:10016800E2000030E3007B1002305C065D04031DF2
:10017800BE28BF28D0287B1CC228C328D02812300C
:10018800DE000030DF001D30E0000030E1003730D5
:10019800E2000030E3007B1003305C065D04031DC1
:1001A800D628D728EA287B1CDA28DB28EA28173043
:1001B800DE000030DF003B30E0000030E100373087
:1001C800E2000030E3007B10DC01DD013C30620618
:1001D8006304031DF028F128F9280130E00703180B
:1001E800E10A0030E107E201E3013C306006610406
:1001F800031DFF28002908290130DE070318DF0A3C
:100208000030DF07E001E10118305E065F04031DDE
:100218000E290F291529E001E101E201E301DE01C0
:10022800DF010B30A5005F08A7005E08A600610883
:10023800A9006008A8006308AB006208AA00A430FF
:100248000A128A1185250A128A11F601F60A023065
:100258000A128A15E6200A128A11A430F700003023
:10026800F8000A128A155E200A128A1183120313F3
:1002780066086704031D41294229CD2A9F111F12D0
:100288009F121F15023083120313D400D40B4A297E
:100298000000831203131E08D400D501D601D7012C
:1002A8005708F5005608F4005508F3005408F20002
:1002B80000300A128A152E220A128A117508831232
:1002C8000313DB007408DA007308D9007208D80039
:1002D8004130BD002030BC000030BB000030BA0007
:1002E8004030A3009C30A2002830A100F630A000C6
:1002F8005B08A7005A08A6005908A5005808A400DA
:100308000A128A15BB240A128A11831203132308BE
:10031800C1002208C0002108BF002008BE000A1240
:100328008A15E8220A128A11831203133D088316DC
:100338000313A300831203133C0883160313A200BC
:10034800831203133B0883160313A10083120313BC
:100358003A0883160313A0000730831203135E06BE
:100368005F04031DB829B929D62960086104031D53
:10037800BE29BF29D62962086304031DC429C529DB
:10038800D629861EC829C929CE2987140130E80034
:100398000030E9006A036B04031DD329D429D62948
:1003A8000A30870012305E065F04031DDC29DD2950
:1003B8000F2A1E3060066104031DE329E4290F2A71
:1003C80062086304031DE929EA290F2A6C086D04F1
:1003D800031DEF29F029F52907140130EC0000303E
:1003E800ED00061FF829F929072A07150230E80049
:1003F8000030E9006A036B04031D032A042A0F2A4C
:100408000D3087000F2A6A036B04031D0C2A0D2A7E
:100418000F2A093087005E085F04031D142A152A75
:10042800322A60086104031D1A2A1B2A322A62082C
:100438006304031D202A212A322A6C036D04031D3C
:10044800262A272A2A2AEC01ED0107106A036B04E1
:10045800031D2F2A302A322A083087005B08F5004E
:100468005A08F4005908F3005808F2004130F9001E
:100478006030F8000030F7000030F6000A128A15E4
:100488008A210A128A11031C4A2A4B2A692A8312D2
:1004980003136A086B04031D522A532A692A871515
:1004A8000130EA000030EB0068036904031D5D2A8F
:1004B8005E2A602A0A308700023068066904031D34
:1004C800662A672A692A0D308700831203135B089E
:1004D800F5005A08F4005908F3005808F2004130B2
:1004E800F9006030F8000030F7000030F6000A121A
:1004F8008A158A210A128A110318832A842AA02AB3
:10050800831203136A036B04031D8B2A8C2AA02A07
:100518008711EA01EB0168036904031D942A952AEF
:10052800972A02308700023068066904031D9D2A55
:100538009E2AA02A0530870083120313061BA52ACA
:10054800A62AB82A023068066904031DAC2AAD2A17
:10055800B82A0711E801E9016A036B04031DB52AEB
:10056800B62AB82A09308700861ABB2ABC2ACD2A9F
:1005780068036904031DC12AC22ACD2A8710E8012D
:10058800E9016A036B04031DCA2ACB2ACD2A083065
:10059800870066036704031DD22AD32A7128FB1338
:1005A800861CD72AFB177B1383120313061DDD2A2B
:1005B8007B17FB1283120313861DE32AFB167B129B
:1005C80083120313061EE92A7B16FB1BEC2AED2A6D
:1005D800502B8312031307140130EC000030ED0098
:1005E8006A036B04031DF92AFA2A022B68086904B6
:1005F800031DFF2A002B022B093087006A036B04B6
:10060800031D072B082B282B6908803AFF00803030
:100618007F02031D112B01306802031C142B152BBC
:10062800282B8312031368036904031D1C2B1D2B3D
:100638001F2B0B308700023068066904031D252B29
:10064800262B282B0D308700831203136908803A64
:10065800FF0080307F02031D332B01306802031C2A
:10066800362B372B502B831203136A086B04031D98
:100678003E2B3F2B502B68036904031D442B452B4D
:10068800472B03308700023068066904031D4D2B91
:100698004E2B502B053087007B1A532B542BB72B2E
:1006A8008312031387150130EA000030EB006C0356
:1006B8006D04031D602B612B812B6908803AFF00B4
:1006C80080307F02031D6A2B01306802031C6D2BEA
:1006D8006E2B812B8312031368036904031D752B8A
:1006E800762B782B0B308700023068066904031DCF
:1006F8007E2B7F2B812B0D308700831203136C0315
:100708006D04031D882B892B912B68086904031D30
:100718008E2B8F2B912B093087006C086D04031DDD
:10072800962B972BB72B6908803AFF0080307F0201
:10073800031DA02B01306802031CA32BA42BB72B8D
:100748008312031368036904031DAB2BAC2BAE2B78
:100758000A308700023068066904031DB42BB52BE4
:10076800B72B0C3087007B1FBA2BBB2BBF2BFB1A78
:10077800BE2BBF2B372C7B1BC22BC32BCA2B0130A4
:1007880083120313E8000030E9008714FB1ACD2B0D
:10079800CE2BD52B023083120313E8000030E9007A
:1007A8000715831203136C036D04031DDC2BDD2B6B
:1007B800F72B6A036B04031DE22BE32BF72BEA2BC1
:1007C8000B308700F72B0D308700F72B6908003AAC
:1007D8000319EF2BF72B6808013A0319E42B033AA6
:1007E8000319E72BF72B6C036D04031DFC2BFD2B62
:1007F800172C6A086B04031D022C032C172C0A2CD7
:1008080003308700172C05308700172C6908003A39
:1008180003190F2C172C6808013A0319042C033A02
:100828000319072C172C6C086D04031D1C2C1D2C98
:10083800372C6A036B04031D222C232C372C2A2CFB
:100848000A308700372C0C308700372C6908003AAB
:1008580003192F2C372C6808013A0319242C033A62
:100868000319272C372CFB1F3A2C3B2CA22C831264
:1008780003136C036D04031D422C432CA22C071098
:10088800EC01ED016A036B04031D4B2C4C2C542C1A
:1008980068086904031D512C522C542C0830870019
:1008A8006A036B04031D592C5A2C7A2C6908803A68
:1008B800FF0080307F02031D632C01306802031C97
:1008C800662C672C7A2C8312031368036904031DB2
:1008D8006E2C6F2C712C0A30870002306806690470
:1008E800031D772C782C7A2C0C3087008312031385
:1008F8006908803AFF0080307F02031D852C013093
:100908006802031C882C892CA22C831203136A0802
:100918006B04031D902C912CA22C68036904031D01
:10092800962C972C992C02308700023068066904AF
:10093800031D9F2CA02CA22C04308700FB19A52C8A
:10094800A62CDB2C8312031368036904031DAD2C4A
:10095800AE2CDB2C0711E801E9016C036D04031DC3
:10096800B62CB72CBF2C6A036B04031DBC2CBD2C02
:10097800BF2C093087006C086D04031DC42CC52CDE
:10098800CD2C6A036B04031DCA2CCB2CCD2C08304C
:1009980087006C036D04031DD22CD32CDB2C6A0852
:1009A8006B04031DD82CD92CDB2C013087007B1954
:1009B800DE2CDF2C152D0230831203136806690420
:1009C800031DE72CE82C152D8711E801E9016C03BC
:1009D8006D04031DF02CF12CF92C6A036B04031D24
:1009E800F62CF72CF92C093087006C086D04031DD0
:1009F800FE2CFF2C072D6A036B04031D042D052D07
:100A0800072D083087006C036D04031D0C2D0D2D78
:100A1800152D6A086B04031D122D132D152D013099
:100A280087007B1E182D192D7128831203136A0362
:100A38006B04031D202D212D71288711EA01EB017C
:100A48006C036D04031D292D2A2D4A2D6908803A4F
:100A5800FF0080307F02031D332D01306802031C24
:100A6800362D372D4A2D8312031368036904031D9D
:100A78003E2D3F2D412D0330870002306806690462
:100A8800031D472D482D4A2D053087008312031377
:100A98006C036D04031D512D522D5A2D68086904ED
:100AA800031D572D582D5A2D013087006C086D04F1
:100AB800031D5F2D602D71286908803AFF00803082
:100AC8007F02031D692D01306802031C6C2D6D2DFA
:100AD80071288312031368036904031D742D752D8F
:100AE800772D02308700023068066904031D7D2DCA
:100AF8007E2D812D04308700712871280A128A11F1
:100B08000C2883120313B3002630AF00632F25305F
:100B180037060319902D912D9B2D33088400370833
:100B2800831380000130AC002C08B307632FB40195
:100B3800B501B001250884000A168A110A200A1294
:100B48008A110A168A1167270A128A11031CAD2D09
:100B5800AE2DEE2D83120313B401B5010A30F20055
:100B68000030F300831203133508F5003408F4004D
:100B78000A168A11A8270A128A1173088312031306
:100B8800B5007208B400250884000A168A110A20E4
:100B98000A128A11D03EAC00FF3003180030AD00B5
:100BA8002C08B4070318B50A2D08B5070130AC00A6
:100BB8002C08A507250884000A168A110A200A129B
:100BC8008A110A168A1167270A128A110318ED2D4D
:100BD800EE2DB22D83120313250884000A168A11FC
:100BE8000A200A128A112E3A031DFB2DFC2D2F2EE6
:100BF8000130AC002C08A507B6011E2E8312031382
:100C08003608F2000A300A168A1179270A128A1160
:100C180083120313B600250884000A168A110A20D5
:100C28000A128A11D03EAC002C08B6070130AC007D
:100C38002C08A507250884000A168A110A200A121A
:100C48008A110A168A1167270A128A1103182D2E8B
:100C58002E2E022E302EB601013083120313A50763
:100C6800FF30250784000A168A110A200A128A1101
:100C7800B700AC00AD012D08003A0319442E632FCC
:100C88002C08003A0319732F643A03194F2E0D3AB2
:100C980003194F2E632F2F08840083130008B10017
:100CA800840A0008B2000230AC002C08AF07B21F5B
:100CB8005E2E5F2E682E0330AC002C08B004B109FC
:100CC800B209B10A0319B20A3608031D6C2E6D2E3B
:100CD800772E31083204031D722E732E772E0130C1
:100CE800AC002C08B607B701B70A3708AC002C07C8
:100CF800013E84000A168A110A200A128A11AD00E0
:100D08000A168A110A200A128A11AE002E08320227
:100D1800031D902E2D0831020318932E942E952E24
:100D28009F2E0130AC002C08B70705303706031D8D
:100D38009E2E9F2E792E3608AC00AD01AC1BAD035C
:100D48002D08803A803C031DAB2E2C08370203186F
:100D5800AE2EAF2EB42E831203133608B700CC2E56
:100D6800831203133608AC00AD01AC1BAD032D088C
:100D7800803AAE0080302E02031DC42E37082C02A4
:100D88000318C72EC82ECC2E831203133708B600BB
:100D980083120313340835040319D32ED42EE02EFE
:100DA800300803390319D92EDA2EE02EFF30B407A4
:100DB8000318B50AFF30B5073508803A803C031D93
:100DC800E72E340837020318EA2EEB2EF72E83128B
:100DD80003133708AC00AD012C08B4022D08031C1E
:100DE800B503B502FB2E83120313B401B501340811
:100DF80035040319002F012F162F330884002030E3
:100E0800831380000130AC002C08B307FF30B4070F
:100E18000318B50AFF30B50734083504031D152F2C
:100E2800162F012F3008033903191B2F1C2F5A2F97
:100E3800330884002D30831380000130AC002C0867
:100E4800B3075A2F0A30A0000030A1003608AC00C2
:100E58002C07013E84000A168A110A200A128A11F8
:100E6800F2000A168A110A200A128A11F3003208BF
:100E7800F5003108F4000A128A15A2200A128A1114
:100E8800730883120313A3007208A2000A128A15BA
:100E980022200A128A11831203132008303EB70059
:100EA80033088400370883138000212FFF30AC00FB
:100EB8002C08B607360A031D622F632F262F013030
:100EC800A507FF30250784000A168A110A200A128E
:100ED8008A11B7003708031D722F732F8B2D330823
:100EE800840083138001080000300A128A1500204C
:100EF8000A128A111A30F700F830F600F60B822F22
:100F0800F70B822F000003300A168A118E270A1267
:100F18008A110730F7007D30F600F60B912FF70B9A
:100F2800912F03300A168A118E270A128A110F3060
:100F3800F7004730F600F60B9F2FF70B9F2FA42FD3
:100F480003300A168A118E270A128A1102300A16ED
:100F58008A118E270A128A1102300A168A118E27E0
:100F68000A128A1108300A168A118E270A128A1163
:100F780000300A168A118E270A128A110C300A16B6
:100F88008A118E270A128A1100300A168A118E27B2
:100F98000A128A1106300A168A118E270A128A1135
:100FA8000800FA00F601F7017208F400F501740868
:100FB800F8007508F9007A1CE22FE32FE92F78086A
:100FC800F6070318F70A7908F70701300310F80D38
:100FD800F90DFF3E031DEA2F0310FA0C7A08031DD2
:100FE800F62FF72FDF2F7708F3007608F2000800B6
:10100000F200721C0428052809288312031308160D
:101010000C28831203130812F21C0F281028122820
:10102000881613288812721D1628172819280817E1
:101030001A280813F21D1D281E2820288817212889
:101040008813080083120313200821040319292898
:101050002A285928A401A40A382801300310A00D19
:10106000A10DFF3E031D2E280130FA007A08A407C7
:10107000A11F3B283C282D2821082302031D4228BC
:1010800020082202031C452846284C282008A202DA
:101090002108031CA303A30201300310A10CA00C20
:1010A000FF3E031D4D280130A402031D5828592876
:1010B0003C282308A1002208A0000800F901FA0139
:1010C000832879087707A1007808A0000318A00AF0
:1010D000F91F6B28A003831203132008A200220823
:1010E000FF00210884000A168A1100200A128A15BE
:1010F0000A168A11CD270A128A150130F90703183A
:10110000FA0A0030FA077908770783120313A1005F
:101110007808A0000318A00AF91F8F28A0038312E3
:1011200003132008A2002208FF00210884000A16E9
:101130008A1100200A128A15003A031DA028A1284E
:1011400061280800F701F801720873040319A9283F
:10115000AA28E128F901F90AB82801300310F20D94
:10116000F30DFF3E031DAE280130F6007608F907A7
:10117000F31FBB28BC28AD2801300310F70DF80D74
:10118000FF3E031DBD2873087502031DC9287208A0
:101190007402031CCC28CD28D4287208F4027308EA
:1011A000031CF503F502771401300310F30CF20C65
:1011B000FF3E031DD5280130F902031DE028E12878
:1011C000BC287808F3007708F200080083120313A4
:1011D000A0002003031DED28EE280D2976087F3E90
:1011E000A3002308F70004300310F70CFF3E031D93
:1011F000F4287708A10023080F39A20021080A1655
:101200008A118E270A128A158312031322080A16DE
:101210008A118E270A128A15312902302006031DF1
:101220001229132931297608BF3EA3002308F700AD
:1012300004300310F70CFF3E031D19297708A100A5
:1012400023080F39A20021080A168A118E270A12D4
:101250008A158312031322080A168A118E270A128E
:101260008A150800831203130C1C372938295C29BE
:101270000C10DC308E000B308F0064086504031DF9
:10128000422943294A290130E4070318E50A0030BE
:10129000E5075C2964036504031D4F2950295C2977
:1012A0000130E2070318E30A0030E307FF30E407E8
:1012B0000318E50AFF30E5078B1C5F2960298329A5
:1012C0008B1066086704031D662967297329870147
:1012D0000130E6000030E700EA01EB01EC01ED012E
:1012E000E801E901832966036704031D7829792948
:1012F00083298701E601E701EA01EB01EC01ED0139
:10130000E801E901832971088A00700E8300FE0E4E
:101310007E0E09000030720583120313A000003016
:101320007305A10080307405A2007F307505A3000D
:101330002308220421042004031D9F29A029A82991
:101340000030F5000030F4000030F3000030F2000F
:1013500000307605A00000307705A10080307805C8
:10136000A2007F307905A300230822042104200471
:10137000031DBB29BC29C4290030F9000030F80046
:101380000030F7000030F600F51FC729C829EC2906
:101390000030A0000030A1000030A2008030A30087
:1013A0007208A0027308031C730FD729D829A10261
:1013B0007408031C740FDD29DE29A2027508031CC2
:1013C000750FE329E429A3022308F5002208F4009D
:1013D0002108F3002008F200F91FEF29F029142A50
:1013E0000030A0000030A1000030A2008030A30037
:1013F0007608A0027708031C770FFF29002AA102B4
:101400007808031C780F052A062AA2027908031C13
:10141000790F0B2A0C2AA3022308F9002208F800EE
:101420002108F7002008F6008030F5068030F90624
:1014300079087502031D262A78087402031D262ADE
:1014400077087302031D262A760872020318292AD8
:101450002A2A2C2A03102D2A0314080083120313AE
:10146000A00020080319352A362A4A2AF51F392AEE
:101470003A2A4A2A7209A2007309A3007409A40037
:101480007509A500A20A0319A30A0319A40A0319DE
:10149000A50A522A7508A5007408A4007308A300C1
:1014A0007208A2007508740473047204031D592A9B
:1014B0005A2A632A0030F5000030F4000030F300AF
:1014C0000030F200E72A9630A100732A0130F600BE
:1014D0007608A10701300310A50CA40CA30CA20CE4
:1014E000FF3E031D6B2AFE302505031D782A792A4D
:1014F000662A952A0130F6007608A1070130A20776
:10150000003003180130A307003003180130A4078E
:10151000003003180130A50701300310A50CA40CFE
:10152000A30CA20CFF3E031D8D2AFF302505031DD1
:101530009A2A9B2A7A2AA72A0130A1020130F600B2
:101540000310A20DA30DA40DA50DF60BA02AA41B3C
:10155000AA2AAB2AB12A023021020318B02AB12AE2
:101560009C2A2118B42AB52ABD2AFF30A205FF30D3
:10157000A3057F30A405FF30A5050310A10C2108A9
:10158000F600F701F801F90118300310F60DF70D18
:10159000F80DF90DFF3E031DC52A7608A204770851
:1015A000A3047808A4047908A50420080319D92AFB
:1015B000DA2ADF2AF51FDD2ADE2ADF2AA517250809
:1015C000F5002408F4002308F3002208F2000800C4
:1015D0008312031341088039CB004108C20042073F
:1015E000D200C01FF42AF52AF62A52145208031911
:1015F000FA2AFB2A0B2B520A031DFF2A002B082B69
:101600000030C1000030C0000030BF000030BE001C
:10161000C017C101132B0030C1000030C0000030E2
:10162000BF000030BE003D088039C2004208CB0632
:101630003D08C2004207D300BC1F1F2B202B212BCB
:10164000531453080319252B262B362B530A031D3D
:101650002A2B2B2B332B0030BD000030BC00003078
:10166000BB000030BA00BC17BD013E2B0030BD00EE
:101670000030BC000030BB000030BA003D083C0424
:101680003B043A04031D452B462B5F2B0030C10061
:101690000030C0000030BF000030BE008030C00409
:1016A0007F30C1044B08C2004208C1044108BD009C
:1016B0004008BC003F08BB003E08BA00BA2C5208E4
:1016C000031D632B642B6D2B0030BD000030BC006C
:1016D0000030BB000030BA00BA2C5208C200C3016F
:1016E0004308C50053084202C400031CC503440854
:1016F0007F3ECC0045080318013E003ECD00410866
:10170000CA004008C9003F08C8003E08C7000030B2
:10171000C1000030C0000030BF000030BE0000300B
:10172000D1000030D0000030CF000030CE00D30117
:10173000E32B530803199D2B9E2BBE2B0130C200B7
:101740000310C70DC80DC90DCA0DC20BA02B013067
:10175000C2000310BE0DBF0DC00DC10DC20BA92BE1
:10176000D11FB32BB42BB52B3E140130C200031094
:10177000CE0DCF0DD00DD10DC20BB72B3D084A02B7
:10178000031DCC2B3C084902031DCC2B3B0848020F
:10179000031DCC2B3A084702031CCF2BD02BDF2B89
:1017A00051173A08C7023B08031C3B0FC8023C080C
:1017B000031C3C0FC9023D08031C3D0FCA02013047
:1017C000C2004208D3071A305302031CE82BE92B4E
:1017D000992B4A084904480447040319F02BF12BBC
:1017E000102C4E14102C0130C2000310BE0DBF0D82
:1017F000C00DC10DC20BF52BD11FFF2B002C012CEE
:101800003E140130C2000310CE0DCF0DD00DD10D0E
:10181000C20B032CFF30CC070318CD0AFF30CD07D5
:10182000C01F132C142CF32BD301D11F182C192CEF
:10183000352CFF304E05C200FF304F05C300FF308E
:101840005005C4007F305105C500450844044304D9
:10185000420403192C2C2D2C302CD301D30A352C07
:101860003E1C332C342C352C2D2C53080319392CC9
:101870003A2C6B2C0130BE07003003180130BF0733
:10188000003003180130C007003003180130C107D1
:10189000411C4B2C4C2C6B2C3E08C2003F08C30053
:1018A0004008C4004108C5000130C600450DC50C04
:1018B000C40CC30CC20CC60B562C4508C10044080E
:1018C000C0004308BF004208BE000130CC07031827
:1018D000CD0A0030CD074D08803AFF0080307F02EE
:1018E000031D742CFF304C02031C772C782C862CA3
:1018F000FF3083120313CC000030CD000030C10054
:101900000030C0000030BF000030BE00831203135F
:101910004D08803AFF0080307F02031D912C01307A
:101920004C020318942C952CA22C83120313CC0187
:10193000CD010030C1000030C0000030BF000030D9
:10194000BE00CB01831203134C08D200521CA92CF9
:10195000AA2CAC2CC017B02C7F30C2004208C005A6
:101960005208C2000310420CC1004B08C2004208DA
:10197000C104562B08008312031323088039AD00DD
:101980002308A8002807B300A21FC72CC82CC92C05
:10199000331433080319CD2CCE2CDD2C330A031D50
:1019A000D22CD32CDB2C0030A3000030A20000305E
:1019B000A1000030A000A217E52C0030A3000030E9
:1019C000A2000030A1000030A00027088039A80044
:1019D0002808AD062708A8002807B200A61FF12C8A
:1019E000F22CF32C321432080319F72CF82C072DA3
:1019F000320A031DFC2CFD2C052D0030A700003001
:101A0000A6000030A5000030A400A6170F2D00305E
:101A1000A7000030A6000030A5000030A400320866
:101A20000319132D142D192D3308031D182D192DED
:101A3000222D0030A3000030A2000030A1000030B1
:101A4000A000FF2F2008F20026080A128A11D527CD
:101A50000A128A15730883120313B9007208B800BA
:101A60003808A800A901AA01AB012B08B1002A0877
:101A7000B0002908AF002808AE003908A800A90165
:101A8000AA01AB012B08B7002A08B6002908B50047
:101A90002808B4002108F20025080A128A11D52767
:101AA0000A128A15730883120313B9007208B8006A
:101AB0003808A800A901AA01AB012808AE07290827
:101AC00003110318013E0319662DAF072A080311FD
:101AD0000318013E03196D2DB0072B0803110318DD
:101AE000013E0319742DB1073908A800A901AA0104
:101AF000AB012808B407290803110318013E031994
:101B0000822DB5072A0803110318013E0319892DF8
:101B1000B6072B0803110318013E0319902DB707D0
:101B20002208F20024080A128A11D5270A128A15FF
:101B3000730883120313B9007208B8003808A800AC
:101B4000A901AA01AB012808AE072908031103184F
:101B5000013E0319AC2DAF072A0803110318013EFB
:101B60000319B32DB0072B0803110318013E031905
:101B7000BA2DB1073908A800A901AA01AB012808AC
:101B8000B407290803110318013E0319C82DB5072E
:101B90002A0803110318013E0319CF2DB6072B089D
:101BA00003110318013E0319D62DB7070830A8000A
:101BB0000310AE0DAF0DB00DB10DA80BD82D21083F
:101BC000F20024080A128A11D5270A128A1573080E
:101BD00083120313B9007208B8003808A800390846
:101BE000A900AA01AB012808AE07290803110318B0
:101BF000013E0319FC2DAF072A0803110318013E0B
:101C00000319032EB0072B0803110318013E031913
:101C10000A2EB1072008F20025080A128A11D527DA
:101C20000A128A15730883120313B9007208B800E8
:101C30003808A8003908A900AA01AB012808AE0796
:101C4000290803110318013E0319272EAF072A089C
:101C500003110318013E03192E2EB0072B080311A0
:101C60000318013E0319352EB1070830A8000310F0
:101C7000AE0DAF0DB00DB10DA80B372E2008F20040
:101C800024080A128A11D5270A128A1573088312AA
:101C90000313B9007208B8003808A8003908A90071
:101CA000AA01AB012808AE07290803110318013E59
:101CB00003195B2EAF072A0803110318013E03190D
:101CC000622EB0072B0803110318013E0319692E79
:101CD000B1072108F20026080A128A11D5270A1234
:101CE0008A15730883120313B9007208B800380804
:101CF000A8003908A900AA01AB012808B4072908DF
:101D000003110318013E0319862EB5072A08031193
:101D10000318013E03198D2EB6072B080311031873
:101D2000013E0319942EB7072208F20025080A1273
:101D30008A11D5270A128A15730883120313B90072
:101D40007208B8003808A8003908A900AA01AB0138
:101D50002808B407290803110318013E0319B12EFE
:101D6000B5072A0803110318013E0319B82EB60758
:101D70002B0803110318013E0319BF2EB7072208D1
:101D8000F20026080A128A11D5270A128A1573084A
:101D900083120313B9007208B8003808A800390884
:101DA000A900AA01AB0108300310A80DA90DAA0DC6
:101DB000AB0DFF3E031DD42E2808B40729080311DC
:101DC0000318013E0319E52EB5072A08031103186D
:101DD000013E0319EC2EB6072B0803110318013E30
:101DE0000319F32EB7072E08A8002F08A900300802
:101DF000AA003108AB0018300310AB0CAA0CA90CD8
:101E0000A80CFF3E031DFC2E2808B4072908031167
:101E10000318013E03190D2FB5072A0803110318F3
:101E2000013E0319142FB6072B0803110318013EB6
:101E300003191B2FB7070830A8000310AE0DAF0D14
:101E4000B00DB10DA80B1D2F33083207A800A90152
:101E5000A90D2808823EB80029080318013EFF3E5C
:101E6000B9004F2F0130A8000310B40DB50DB60D09
:101E7000B70DA80B342FB11F3E2F3F2F402F341426
:101E80000130A8000310AE0DAF0DB00DB10DA80BC1
:101E9000422FFF30B8070318B90AFF30B907B61F41
:101EA000522F532F322FB201B11F572F582F742F9B
:101EB000FF302E05A800FF302F05A900FF303005A8
:101EC000AA007F303105AB002B082A04290428041E
:101ED00003196B2F6C2F6F2FB201B20A742F341CB1
:101EE000722F732F742F6C2F32080319782F792FCC
:101EF000AA2F0130B407003003180130B5070030B5
:101F000003180130B607003003180130B707371C3B
:101F10008A2F8B2FAA2F3408A8003508A90036086D
:101F2000AA003708AB000130AC002B0DAB0CAA0C9B
:101F3000A90CA80CAC0B952F2B08B7002A08B600EB
:101F40002908B5002808B4000130B8070318B90AF9
:101F50000030B9073908803AFF0080307F02031D46
:101F6000B32FFF303802031CB62FB72FC22F7F309C
:101F700083120313B7008030B6000030B500003084
:101F8000B400F32F831203133908803AFF00803026
:101F90007F02031DCD2F013038020318D02FD12F1F
:101FA000DD2F003083120313B7000030B60000307D
:101FB000B5000030B400AD01F32F831203133808CD
:101FC000B300FF30B405FF30B5057F30B6050030F3
:101FD000B705331CEC2FED2FEE2FB6173308A800F2
:101FE0000310280CB7002D08A8002808B7043708EC
:101FF000A3003608A2003508A1003408A00008009C
:10200000FF1B0A2883137F1883170008840A03190B
:10201000FF0A080010308A000408840A820700348E
:10202000013400340A34003464340034E8340334B6
:1020300010342734253432342E343234643420348E
:102040003A342034253432342E343234643420345B
:102050003A342034253432342E343234643400346B
:10206000523465346C346F34673469346F343A34C5
:0220700000343A
:102EA40064008001840A0406031900340406532FC5
:102EB40000300A168A118E270A168A1101300A1662
:102EC4008A118E270A168A110800F300F2013A309B
:102ED400730203186E2F6F2F772F30307302031C89
:102EE400742F752F772FF201F20A720C0800F50087
:102EF400F401751C7E2F7F2F832F7208F300730853
:102F0400F4070310F20D0310F50C7508031D8B2F45
:102F14008C2F7B2F74080800F5008312031308110B
:102F240075080A128A1500200A168A1183120313DF
:102F340088150630F4003030F300F30B9F2FF40BA8
:102F44009F2F00008312031388110800F601F70174
:102F5400721CAD2FAE2FB42F7408F6070318F70AAE
:102F64007508F70701300310F40DF50DFF3E031D3E
:102F7400B52F01300310F30CF20CFF3E031DBC2FE0
:102F840072087304031DC72FC82FAA2F7708F300F4
:102F94007608F2000800F60076080F39F400760887
:102FA400F039F5008312031308157508F300043093
:102FB4000310F30CFF3E031DDA2F73080A128A155F
:102FC40000200A168A118312031388150D30F300AA
:102FD400F30BEA2F83120313881174080A128A155B
:102FE40000200A168A118312031388150D30F3008A
:0C2FF400F30BFA2F83120313881108005E
:02400E00F23F7F
:00000001FF
